S0150000696E7465726661636554524E472E7372656323
S11300000C9434000C943E000C943E000C943E007E
S11300100C943E000C943E000C943E000C943E0064
S11300200C943E000C943E000C943E000C943E0054
S11300300C943E000C943E000C943E000C943E0044
S11300400C943E000C943E000C943E000C943E0034
S11300500C943E000C943E000C943E000C943E0024
S11300600C943E000C943E0011241FBECFEFD8E048
S1130070DEBFCDBF0E94D2000C943B010C94000063
S11300801092C50087E08093C400E1ECF0E0808129
S113009088608083E2ECF0E0808186688083E0EC15
S11300A0F0E08081826080830895E0ECF0E090814C
S11300B095FFFDCF8093C6000895EAE7F0E0108233
S11300C0ACE7B0E08C9180648C938C9180628C93CB
S11300D08081856080838081806880830895ECE7D7
S11300E0F0E09081987F8770892B8083EAE7F0E0C5
S11300F0808180648083808186FDFDCF809179003A
S11301000895CF93DF9320E030E0A0E0B0E0E82F43
S1130110F0E0AF01022E02C0559547950A94E2F72C
S1130120942F9170A9014F5F5F4FEF0102C0D595E5
S1130130C7954A95E2F7AE014170941311962E5F6C
S11301403F4F2830310529F7FB01B183A083DF91AC
S1130150CF910895CF93DF93620F731F261737074C
S1130160F0F4FA019081A0E0B0E0C82FD0E0FE01E5
S11301700A2E02C0F595E7950A94E2F7E170FF278D
S1130180022E02C0EE0FFF1F0A94E2F79E2B119677
S11301902F5F3F4F6217730751F7FA019083DF9186
S11301A0CF910895CF93DF93CDB7DEB727970FB6DE
S11301B0F894DEBF0FBECDBF0E9440000E945D00D8
S11301C01E821D82C12CD12C1F82E12CF12C80E0D7
S11301D00E946F00BE016D5F7F4F0E948100182F47
S11301E08AE18A95F1F700C080E00E946F00BE01A9
S11301F06B5F7F4F0E948100112309F18823F9F07E
S1130200EB81FC816D817E816E177F0768F4970115
S1130210AE01495F5F4FBF0181270E94AA008B8115
S11302209C81E80EF91E0BC09701AE01495F5F4F38
S113023081270E94AA008D819E81E80EF91E88E024
S1130240E816F10420F28F81E1E0F0E0EC0FFD1FED
S1130250EC0DFD1D808381E0C816D10441F4998121
S11302608A8189270E945500C12CD12CADCF8FEFF4
S10D0270C81AD80AA9CFF894FFCFEA
S9030000FC
